:100000000C9434000C9451000C9451000C94510049
:100010000C9451000C9451000C9451000C9451001C
:100020000C9451000C9451000C9451000C9451000C
:100030000C9451000C9451000C9451000C945100FC
:100040000C94E7000C9451000C9451000C94510056
:100050000C9451000C9451000C9451000C945100DC
:100060000C9451000C94510011241FBECFEFD8E026
:10007000DEBFCDBF11E0A0E0B1E0EEEFF2E002C0E4
:1000800005900D92A831B107D9F721E0A8E1B1E0C0
:1000900001C01D92A132B207E1F70E9431010C9418
:1000A0007D010C9400003FB7F89480911D01909160
:1000B0001E01A0911F01B091200126B5A89B05C08B
:1000C0002F3F19F00196A11DB11D3FBFBA2FA92FD7
:1000D000982F8827BC01CD01620F711D811D911DD4
:1000E00042E0660F771F881F991F4A95D1F7089540
:1000F0008F929F92AF92BF92CF92DF92EF92FF9238
:100100006B017C010E9453004B015C01C114D104BE
:10011000E104F104B9F00E945300681979098A09D1
:100120009B09683E73408105910580F321E0C21A66
:10013000D108E108F10888EE880E83E0981EA11C22
:10014000B11CE4CFFF90EF90DF90CF90BF90AF90C5
:100150009F908F900895EF92FF920F931F93CF93EC
:10016000DF93CDB7DEB768970FB6F894DEBF0FBE4A
:10017000CDBF88E1E0E0F1E0DE01119601900D9243
:100180008A95E1F78E010F5F1F4FF12C0F2EF5E4DA
:10019000EF2EF02DF80181918F016F2D6E256827CC
:1001A00070E090E080E00E947800F394F8E1FF12A4
:1001B000F1CF68960FB6F894DEBF0FBECDBFDF91CA
:1001C000CF911F910F91FF90EF90089508951F9286
:1001D0000F920FB60F9211242F933F938F939F93FB
:1001E000AF93BF938091190190911A01A0911B01C7
:1001F000B0911C013091180123E0230F2D3758F5E1
:100200000196A11DB11D20931801809319019093AF
:100210001A01A0931B01B0931C0180911D019091C4
:100220001E01A0911F01B09120010196A11DB11DD9
:1002300080931D0190931E01A0931F01B093200194
:10024000BF91AF919F918F913F912F910F900FBED2
:100250000F901F90189526E8230F0296A11DB11D3F
:10026000D2CF789484B5826084BD84B5816084BD2A
:1002700085B5826085BD85B5816085BD80916E0044
:10028000816080936E001092810080918100826075
:1002900080938100809181008160809381008091B2
:1002A00080008160809380008091B10084608093A1
:1002B000B1008091B00081608093B00080917A009D
:1002C000846080937A0080917A00826080937A00C3
:1002D00080917A00816080937A0080917A008068B2
:1002E00080937A001092C100C0E0D0E00E94AB0081
:0E02F0002097E1F30E940000F9CFF894FFCFB1
:1002FE00060E757673703831217F7C3E78260C158C
:08030E0061181B0935642A2F58
:00000001FF
